{
  "contractName": "Election",
  "abi": [
    {
      "constant": true,
      "inputs": [],
      "name": "candidatesCount",
      "outputs": [
        {
          "name": "",
          "type": "uint256"
        }
      ],
      "payable": false,
      "stateMutability": "view",
      "type": "function"
    },
    {
      "constant": true,
      "inputs": [
        {
          "name": "",
          "type": "uint256"
        }
      ],
      "name": "candidates",
      "outputs": [
        {
          "name": "id",
          "type": "uint256"
        },
        {
          "name": "name",
          "type": "string"
        },
        {
          "name": "voteCount",
          "type": "uint256"
        }
      ],
      "payable": false,
      "stateMutability": "view",
      "type": "function"
    },
    {
      "constant": true,
      "inputs": [
        {
          "name": "",
          "type": "address"
        }
      ],
      "name": "voters",
      "outputs": [
        {
          "name": "",
          "type": "bool"
        }
      ],
      "payable": false,
      "stateMutability": "view",
      "type": "function"
    },
    {
      "inputs": [],
      "payable": false,
      "stateMutability": "nonpayable",
      "type": "constructor"
    },
    {
      "anonymous": false,
      "inputs": [
        {
          "indexed": true,
          "name": "_candidateId",
          "type": "uint256"
        }
      ],
      "name": "votedEvent",
      "type": "event"
    },
    {
      "constant": false,
      "inputs": [
        {
          "name": "_candidateId",
          "type": "uint256"
        }
      ],
      "name": "vote",
      "outputs": [],
      "payable": false,
      "stateMutability": "nonpayable",
      "type": "function"
    }
  ],
  "bytecode": "0x608060405234801561001057600080fd5b5061005e6040805190810160405280600481526020017f4a6f686e000000000000000000000000000000000000000000000000000000008152506100fd640100000000026401000000009004565b6100ab6040805190810160405280600381526020017f53616d00000000000000000000000000000000000000000000000000000000008152506100fd640100000000026401000000009004565b6100f86040805190810160405280600481526020017f4a756e65000000000000000000000000000000000000000000000000000000008152506100fd640100000000026401000000009004565b61021e565b600160008154809291906001019190505550606060405190810160405280600154815260200182815260200160008152506000806001548152602001908152602001600020600082015181600001556020820151816001019080519060200190610168929190610179565b506040820151816002015590505050565b828054600181600116156101000203166002900490600052602060002090601f016020900481019282601f106101ba57805160ff19168380011785556101e8565b828001600101855582156101e8579182015b828111156101e75782518255916020019190600101906101cc565b5b5090506101f591906101f9565b5090565b61021b91905b808211156102175760008160009055506001016101ff565b5090565b90565b6104058061022d6000396000f300608060405260043610610062576000357c0100000000000000000000000000000000000000000000000000000000900463ffffffff1680630121b93f146100675780632d35a8a2146100945780633477ee2e146100bf578063a3ec138d14610173575b600080fd5b34801561007357600080fd5b50610092600480360381019080803590602001909291905050506101ce565b005b3480156100a057600080fd5b506100a96102f1565b6040518082815260200191505060405180910390f35b3480156100cb57600080fd5b506100ea600480360381019080803590602001909291905050506102f7565b6040518084815260200180602001838152602001828103825284818151815260200191508051906020019080838360005b8381101561013657808201518184015260208101905061011b565b50505050905090810190601f1680156101635780820380516001836020036101000a031916815260200191505b5094505050505060405180910390f35b34801561017f57600080fd5b506101b4600480360381019080803573ffffffffffffffffffffffffffffffffffffffff1690602001909291905050506103b9565b604051808215151515815260200191505060405180910390f35b600260003373ffffffffffffffffffffffffffffffffffffffff1673ffffffffffffffffffffffffffffffffffffffff16815260200190815260200160002060009054906101000a900460ff1615151561022757600080fd5b60008111801561023957506001548111155b151561024457600080fd5b6001600260003373ffffffffffffffffffffffffffffffffffffffff1673ffffffffffffffffffffffffffffffffffffffff16815260200190815260200160002060006101000a81548160ff02191690831515021790555060008082815260200190815260200160002060020160008154809291906001019190505550807ffff3c900d938d21d0990d786e819f29b8d05c1ef587b462b939609625b684b1660405160405180910390a250565b60015481565b6000602052806000526040600020600091509050806000015490806001018054600181600116156101000203166002900480601f0160208091040260200160405190810160405280929190818152602001828054600181600116156101000203166002900480156103a95780601f1061037e576101008083540402835291602001916103a9565b820191906000526020600020905b81548152906001019060200180831161038c57829003601f168201915b5050505050908060020154905083565b60026020528060005260406000206000915054906101000a900460ff16815600a165627a7a72305820b4cf6acbc218e73a3dee70db17adaced778a521bf045a396a08691d01a363cb80029",
  "source": "pragma solidity ^0.4.17;\r\n\r\ncontract Election {\r\n  //Model a candidate\r\n  struct Candidate { //syntactic suger, so no mapping\r\n    uint id;\r\n    string name;\r\n    uint voteCount;\r\n  }\r\n  //Store candidates\r\n  //key uint\r\n  //value candidate structure type\r\n  mapping(uint => Candidate) public candidates;\r\n  //fetch candidates\r\n  //track length of candidates\r\n  uint public candidatesCount; //no way to determine size and iterate\r\n  //constructor\r\n\r\n  //store accounts voted\r\n  mapping(address => bool) public voters;\r\n\r\n  event votedEvent (\r\n    uint indexed _candidateId\r\n    );\r\n\r\n  function Election () public {\r\n    addCandidate(\"John\");\r\n    addCandidate(\"Sam\");\r\n    addCandidate(\"June\");\r\n  }\r\n\r\n  function addCandidate(string _name) private {\r\n    candidatesCount++;\r\n    candidates[candidatesCount] = Candidate(candidatesCount, _name, 0);\r\n  }\r\n\r\n  function vote(uint _candidateId) public {\r\n      //gas used this point won't get refunded\r\n      require(!voters[msg.sender]);\r\n      require(_candidateId > 0 && _candidateId <= candidatesCount);\r\n      //gas won't be used and get refunded.\r\n\r\n        //passes in metadata to the function\r\n        //sender account\r\n        voters[msg.sender] = true;\r\n\r\n        candidates[_candidateId].voteCount ++;\r\n\r\n        votedEvent(_candidateId);\r\n\r\n  }\r\n\r\n  //web3.eth.account[0]\r\n  //bug free otherwise can only disable a buggy contract.\r\n  //deploy a contract cost gas\r\n  //\r\n}\r\n",
  "sourcePath": "C:\\hackathon\\blockchain\\blockchain\\contracts\\election.sol",
  "compiler": {
    "name": "solc",
    "version": "0.4.24+commit.e67f0147.Emscripten.clang"
  },
  "schemaVersion": "2.0.1",
  "updatedAt": "2018-06-22T21:43:15.231Z"
}